:020000040800F2
:1000000020040020450100084D060008F104000806
:1000100071050008B90100081D0900080000000072
:1000200000000000000000000000000011070008B0
:10003000BD01000800000000C106000825080008F6
:100040005F0100085F0100085F0100085F01000810
:100050005F0100085F010008C10100085F0100089E
:100060006902000889020008990200085F0100087F
:100070005F0100085F0100085F0100085F010008E0
:100080005F0100085F0100085F0100085F010008D0
:100090005F0100085F0100085F0100085F010008C0
:1000A0005F0100085F0100085F0100085F010008B0
:1000B0005F0100085F010008C50800085F01000833
:1000C0005F0100085F0100085F0100085F01000890
:1000D0005F0100085F0100085F0100085F01000880
:1000E0005F0100085F0100085F0100085F01000870
:1000F0005F0100085F0100085F0100085F01000860
:100100005F0100085F0100085F0100085F0100084F
:100110005F0100085F0100085F0100085F0100083F
:100120005F0100085F0100085F0100085F0100082F
:10013000DFF80CD000F018F800480047D909000893
:10014000200400200648804706480047FEE7FEE7F7
:10015000FEE7FEE7FEE7FEE7FEE7FEE7FEE7FEE777
:100160006508000831010008064C074D06E0E0680C
:1001700040F0010394E8070098471034AC42F6D3EE
:10018000FFF7DAFF600A0008800A000808B50121BD
:10019000082000F097FA2020ADF8000010208DF81C
:1001A000030003208DF802006946024800F008F9B8
:1001B00008BD0000000C014000BFFEE770470000D2
:1001C0007FB53224012000F07DF8012833D12EE0E4
:1001D0001BA30FCB8DE80F001D4800680A2190FB80
:1001E000F1F201FB12001DF80000C04385B2294660
:1001F000184800F07BF9012017490860204600F0FC
:10020000C5FB641C00201549C1F89401322000F0A0
:10021000BDFB0821124800F05EF938B911480068AA
:1002200008B9012000E000200E49086000BF0D4819
:1002300000680128CCD0012000F03EF87FBD00000E
:100240003F065B4F666D7D077F6F777C395E797106
:1002500010000020001001409481214200802142C2
:10026000001801401400002010B5042000F02AF806
:10027000012803D10421034800F02DF9042000F0E7
:100280001BF810BD0018014010B5082000F01AF846
:10029000082000F011F810BD10B5102000F012F881
:1002A000012803D11021034800F015F9102000F0B7
:1002B00003F810BD001801400149086070470000B4
:1002C00014040140014600200022074B1B6803EA8A
:1002D0000102054B14331B680B4013B10AB1012016
:1002E00000E0002070470000000401400021234985
:1002F0008279002A3AD00A46126803689A430B466C
:100300001A600A1D126803689A430B1D1A6002796D
:1003100011440A6803681A430A60184A08321268CE
:1003200003689A43154B08331A601A1D1268036854
:100330009A43124B0C331A604279102A0ED11A1FBD
:10034000126803681A430D4B08331A601A1D1268AD
:1003500003681A43094B0C331A600DE007494279D0
:1003600011440A6803681A430A6005E002791144DF
:100370000A6803689A430A6070470000000401405D
:1003800030B500228B071C0F0F2303FA04F20B4B2E
:100390008C1053F824309343084C8D1044F82530CA
:1003A00023468C1053F824308C07240F00FA04F4F1
:1003B0002343024C8D1044F8253030BD0800014025
:1003C0002DE9F041024600250026002000230024EC
:1003D000002791F803C00CF00F0591F803C00CF052
:1003E000100CBCF1000F03D091F802C04CEA0505D7
:1003F00091F800C0BCF1000F31D0146800202BE050
:100400004FF0010C0CFA00F3B1F800C00CEA03063F
:100410009E4220D183004FF00F0C0CFA03F7BC432F
:1004200005FA03FC4CEA040491F803C0BCF1280F60
:1004300006D14FF0010C0CFA00FCC2F814C00AE01F
:1004400091F803C0BCF1480F05D14FF0010C0CFA34
:1004500000FCC2F810C0401C0828D1D31460B1F8C9
:1004600000C0BCF1FF0F34DD546800202EE000F125
:10047000080C4FF0010808FA0CF3B1F800C00CEAC0
:1004800003069E4221D183004FF00F0C0CFA03F7B4
:10049000BC4305FA03FC4CEA040491F803C0BCF128
:1004A000280F05D100F1080C08FA0CF8C2F81480E6
:1004B00091F803C0BCF1480F07D100F1080C4FF0D0
:1004C000010808FA0CF8C2F81080401C0828CED3A6
:1004D0005460BDE8F0810246002093680B400BB1E8
:1004E000012000E00020704701617047C160704743
:1004F00000BFFEE708B50121442000F0E3F8282002
:100500008DF803000120ADF8000003208DF80200F3
:1005100069460848FFF754FF48208DF803001C2067
:10052000ADF8000003208DF8020069460248FFF78D
:1005300047FF08BD000801400018014008B501212F
:10054000102000F0BFF8FF20ADF8000010208DF85B
:10055000030003208DF8020069460448FFF730FFCE
:10056000FF210248FFF7C0FF08BD00000010014056
:1005700000BFFEE70EB50121084600F0A3F80021F8
:100580000846FFF7FDFE02210420FFF7F9FE0321D4
:100590000420FFF7F5FE04210846FFF7F1FE0620D0
:1005A0008DF8080002208DF8090003208DF80A005C
:1005B00001208DF80B0002A800F04AF808208DF801
:1005C000080002208DF809008DF80A0001208DF83E
:1005D0000B0002A800F03CF809208DF8080002206A
:1005E0008DF8090001208DF80A008DF80B0002A893
:1005F00000F02EF80A208DF8080002208DF809007E
:1006000000208DF80A0001208DF80B0002A800F0F0
:100610001FF80120009000208DF8040008208DF8BC
:10062000050001208DF806006846FFF75FFE1C20DC
:10063000009000208DF804000C208DF805000120AA
:100640008DF806006846FFF751FE0EBD70470000AA
:1006500070B5002100230F22C47804B3154C246820
:1006600004F4E064C4F5E064210AC1F10403CA4063
:10067000447804FA03F184781440214309010E4CB4
:100680000678A155047804F01F050124AC400578D4
:100690006D11AD0005F1E025C5F8004109E00478D1
:1006A00004F01F050124AC40044D0678761145F88E
:1006B000264070BD0CED00E000E400E080E100E0C9
:1006C0007047000029B1064A92690243044B9A61BF
:1006D00004E0034A92698243014B9A61704700002B
:1006E0000010024008B501211020FFF7EBFFFF20AA
:1006F000ADF8000010208DF8030003208DF80200F3
:1007000069460248FFF75CFE08BD0000001001408A
:10071000704710B500F002F810BD00000CB50020C5
:10072000019000903348006840F4803031490860FF
:1007300000BF3048006800F4003000900198401C71
:100740000190009818B90198B0F5A06FF1D129482F
:10075000006800F4003010B10120009001E000209A
:1007600000900098012843D12348006840F0100011
:10077000214908600846006820F003000860084628
:10078000006840F0020008601A4840681949486053
:100790000846406848600846406840F48060486009
:1007A0000846406820F47C1048600846406840F4E1
:1007B000E81048600846006840F08070086000BF9C
:1007C0000C48006800F000700028F9D00948406823
:1007D00020F00300074948600846406840F00200E6
:1007E000486000BF0348406800F00C000828F9D1B9
:1007F0000CBD00000010024000200240042808D177
:100800004FF0E021096941F004014FF0E02211614D
:1008100007E04FF0E021096921F004014FF0E022E8
:10082000116170477047000010B504466FF0040076
:10083000FFF7E4FFE11704EB5171C1F3C701074A69
:1008400011701046007800EB4001C1EBC0104FF66C
:10085000FF7101EAC0000249088010BD18000020A5
:100860001A00002010B51348006840F0010011493B
:10087000086008464068104908400E49486008462C
:1008800000680E4908400B4908600846006820F4DB
:10089000802008600846406820F4FE0048604FF45D
:1008A0001F008860FFF735FF4FF0006004490860C3
:1008B00010BD0000001002400000FFF8FFFFF6FE30
:1008C00008ED00E010B50121084800F016F838B135
:1008D0000748006808B9012000E0002004490860CA
:1008E0000121024800F006F810BD00000008004099
:1008F00084012242CA430282704730B5024600207A
:1009000000230024158A05EA0103958905EA0104FC
:1009100013B10CB1012000E0002030BD00BFFEE7A4
:1009200002E008C8121F08C1002AFAD170477047B8
:10093000002001E001C1121F002AFBD17047000016
:100940000146114A12884A434FF0E0235A610022BF
:100950009A611A46126942F001021A6100BF4FF013
:10096000E022106900F001021AB100F48032002A7E
:10097000F5D04FF0E022126922F001024FF0E0239F
:100980001A6100229A6170471A0000200146114A3C
:1009900012784A434FF0E0235A6100229A611A46C6
:1009A000126942F001021A6100BF4FF0E0221069A3
:1009B00000F001021AB100F48032002AF5D04FF0A5
:1009C000E022126922F001024FF0E0231A610022B6
:1009D0009A61704718000020FFF7B0FD4820FFF72C
:1009E00023FFFFF7D3FBFFF77DFEFFF783FDFFF744
:1009F000C1FD28E0012014490860144800680A215C
:100A000090FBF1F201FB12001149085CC04384B273
:100A100021461048FFF76AFD40F2E730FFF790FFEC
:100A200001200D4908604FF47A70FFF7AFFF0020F6
:100A30000A49C1F894013220FFF7A8FF0348006873
:100A4000401E02490860D5E7140000201000002075
:100A500000000020001001409481214200802142CA
:100A6000800A0008000000201C0000002009000887
:100A70009C0A00081C000020040400003009000843
:100A80003F065B4F666D7D077F6F777C395E7971BE
:0C0A90000F270000000000000000000024
:0400000508000131BD
:00000001FF
